{
  "contractName": "DStorage",
  "abi": [
    {
      "inputs": [],
      "payable": false,
      "stateMutability": "nonpayable",
      "type": "constructor"
    },
    {
      "anonymous": false,
      "inputs": [
        {
          "indexed": false,
          "internalType": "uint256",
          "name": "fileId",
          "type": "uint256"
        },
        {
          "indexed": false,
          "internalType": "string",
          "name": "fileHash",
          "type": "string"
        },
        {
          "indexed": false,
          "internalType": "address",
          "name": "deletedBy",
          "type": "address"
        }
      ],
      "name": "FileDeleted",
      "type": "event"
    },
    {
      "anonymous": false,
      "inputs": [
        {
          "indexed": false,
          "internalType": "uint256",
          "name": "fileId",
          "type": "uint256"
        },
        {
          "indexed": false,
          "internalType": "string",
          "name": "fileHash",
          "type": "string"
        },
        {
          "indexed": false,
          "internalType": "uint256",
          "name": "fileSize",
          "type": "uint256"
        },
        {
          "indexed": false,
          "internalType": "string",
          "name": "fileType",
          "type": "string"
        },
        {
          "indexed": false,
          "internalType": "string",
          "name": "fileName",
          "type": "string"
        },
        {
          "indexed": false,
          "internalType": "string",
          "name": "fileDescription",
          "type": "string"
        },
        {
          "indexed": false,
          "internalType": "uint256",
          "name": "uploadTime",
          "type": "uint256"
        },
        {
          "indexed": false,
          "internalType": "address payable",
          "name": "uploader",
          "type": "address"
        }
      ],
      "name": "FileUploaded",
      "type": "event"
    },
    {
      "constant": true,
      "inputs": [],
      "name": "fileCount",
      "outputs": [
        {
          "internalType": "uint256",
          "name": "",
          "type": "uint256"
        }
      ],
      "payable": false,
      "stateMutability": "view",
      "type": "function"
    },
    {
      "constant": true,
      "inputs": [
        {
          "internalType": "string",
          "name": "",
          "type": "string"
        }
      ],
      "name": "fileExists",
      "outputs": [
        {
          "internalType": "bool",
          "name": "",
          "type": "bool"
        }
      ],
      "payable": false,
      "stateMutability": "view",
      "type": "function"
    },
    {
      "constant": true,
      "inputs": [
        {
          "internalType": "uint256",
          "name": "",
          "type": "uint256"
        }
      ],
      "name": "files",
      "outputs": [
        {
          "internalType": "uint256",
          "name": "fileId",
          "type": "uint256"
        },
        {
          "internalType": "string",
          "name": "fileHash",
          "type": "string"
        },
        {
          "internalType": "uint256",
          "name": "fileSize",
          "type": "uint256"
        },
        {
          "internalType": "string",
          "name": "fileType",
          "type": "string"
        },
        {
          "internalType": "string",
          "name": "fileName",
          "type": "string"
        },
        {
          "internalType": "string",
          "name": "fileDescription",
          "type": "string"
        },
        {
          "internalType": "uint256",
          "name": "uploadTime",
          "type": "uint256"
        },
        {
          "internalType": "address payable",
          "name": "uploader",
          "type": "address"
        }
      ],
      "payable": false,
      "stateMutability": "view",
      "type": "function"
    },
    {
      "constant": true,
      "inputs": [],
      "name": "name",
      "outputs": [
        {
          "internalType": "string",
          "name": "",
          "type": "string"
        }
      ],
      "payable": false,
      "stateMutability": "view",
      "type": "function"
    },
    {
      "constant": true,
      "inputs": [
        {
          "internalType": "address",
          "name": "",
          "type": "address"
        },
        {
          "internalType": "uint256",
          "name": "",
          "type": "uint256"
        }
      ],
      "name": "userFiles",
      "outputs": [
        {
          "internalType": "uint256",
          "name": "",
          "type": "uint256"
        }
      ],
      "payable": false,
      "stateMutability": "view",
      "type": "function"
    },
    {
      "constant": false,
      "inputs": [
        {
          "internalType": "string",
          "name": "_fileHash",
          "type": "string"
        },
        {
          "internalType": "uint256",
          "name": "_fileSize",
          "type": "uint256"
        },
        {
          "internalType": "string",
          "name": "_fileType",
          "type": "string"
        },
        {
          "internalType": "string",
          "name": "_fileName",
          "type": "string"
        },
        {
          "internalType": "string",
          "name": "_fileDescription",
          "type": "string"
        }
      ],
      "name": "uploadFile",
      "outputs": [],
      "payable": false,
      "stateMutability": "nonpayable",
      "type": "function"
    },
    {
      "constant": true,
      "inputs": [
        {
          "internalType": "address",
          "name": "user",
          "type": "address"
        }
      ],
      "name": "getUserFiles",
      "outputs": [
        {
          "internalType": "uint256[]",
          "name": "",
          "type": "uint256[]"
        }
      ],
      "payable": false,
      "stateMutability": "view",
      "type": "function"
    },
    {
      "constant": false,
      "inputs": [
        {
          "internalType": "uint256",
          "name": "_fileId",
          "type": "uint256"
        }
      ],
      "name": "deleteFile",
      "outputs": [],
      "payable": false,
      "stateMutability": "nonpayable",
      "type": "function"
    }
  ],
  "bytecode": "0x60806040526040518060400160405280600881526020017f4453746f7261676500000000000000000000000000000000000000000000000081525060009080519060200190620000519291906200006b565b5060006001553480156200006457600080fd5b506200011a565b828054600181600116156101000203166002900490600052602060002090601f016020900481019282601f10620000ae57805160ff1916838001178555620000df565b82800160010185558215620000df579182015b82811115620000de578251825591602001919060010190620000c1565b5b509050620000ee9190620000f2565b5090565b6200011791905b8082111562000113576000816000905550600101620000f9565b5090565b90565b611d77806200012a6000396000f3fe608060405234801561001057600080fd5b50600436106100885760003560e01c80639bccd6ad1161005b5780639bccd6ad14610229578063c5b42006146102fc578063e82d9d331461032a578063f4c714b4146105b457610088565b806306fdde031461008d5780631fc379221461011057806343953519146101a9578063718f38a6146101c7575b600080fd5b6100956107e7565b6040518080602001828103825283818151815260200191508051906020019080838360005b838110156100d55780820151818401526020810190506100ba565b50505050905090810190601f1680156101025780820380516001836020036101000a031916815260200191505b509250505060405180910390f35b6101526004803603602081101561012657600080fd5b81019080803573ffffffffffffffffffffffffffffffffffffffff169060200190929190505050610885565b6040518080602001828103825283818151815260200191508051906020019060200280838360005b8381101561019557808201518184015260208101905061017a565b505050509050019250505060405180910390f35b6101b161091c565b6040518082815260200191505060405180910390f35b610213600480360360408110156101dd57600080fd5b81019080803573ffffffffffffffffffffffffffffffffffffffff16906020019092919080359060200190929190505050610922565b6040518082815260200191505060405180910390f35b6102e26004803603602081101561023f57600080fd5b810190808035906020019064010000000081111561025c57600080fd5b82018360208201111561026e57600080fd5b8035906020019184600183028401116401000000008311171561029057600080fd5b91908080601f016020809104026020016040519081016040528093929190818152602001838380828437600081840152601f19601f820116905080830192505050505050509192919290505050610950565b604051808215151515815260200191505060405180910390f35b6103286004803603602081101561031257600080fd5b8101908080359060200190929190505050610986565b005b6105b2600480360360a081101561034057600080fd5b810190808035906020019064010000000081111561035d57600080fd5b82018360208201111561036f57600080fd5b8035906020019184600183028401116401000000008311171561039157600080fd5b91908080601f016020809104026020016040519081016040528093929190818152602001838380828437600081840152601f19601f82011690508083019250505050505050919291929080359060200190929190803590602001906401000000008111156103fe57600080fd5b82018360208201111561041057600080fd5b8035906020019184600183028401116401000000008311171561043257600080fd5b91908080601f016020809104026020016040519081016040528093929190818152602001838380828437600081840152601f19601f8201169050808301925050505050505091929192908035906020019064010000000081111561049557600080fd5b8201836020820111156104a757600080fd5b803590602001918460018302840111640100000000831117156104c957600080fd5b91908080601f016020809104026020016040519081016040528093929190818152602001838380828437600081840152601f19601f8201169050808301925050505050505091929192908035906020019064010000000081111561052c57600080fd5b82018360208201111561053e57600080fd5b8035906020019184600183028401116401000000008311171561056057600080fd5b91908080601f016020809104026020016040519081016040528093929190818152602001838380828437600081840152601f19601f820116905080830192505050505050509192919290505050611150565b005b6105e0600480360360208110156105ca57600080fd5b8101908080359060200190929190505050611932565b60405180898152602001806020018881526020018060200180602001806020018781526020018673ffffffffffffffffffffffffffffffffffffffff1673ffffffffffffffffffffffffffffffffffffffff16815260200185810385528c818151815260200191508051906020019080838360005b83811015610670578082015181840152602081019050610655565b50505050905090810190601f16801561069d5780820380516001836020036101000a031916815260200191505b5085810384528a818151815260200191508051906020019080838360005b838110156106d65780820151818401526020810190506106bb565b50505050905090810190601f1680156107035780820380516001836020036101000a031916815260200191505b50858103835289818151815260200191508051906020019080838360005b8381101561073c578082015181840152602081019050610721565b50505050905090810190601f1680156107695780820380516001836020036101000a031916815260200191505b50858103825288818151815260200191508051906020019080838360005b838110156107a2578082015181840152602081019050610787565b50505050905090810190601f1680156107cf5780820380516001836020036101000a031916815260200191505b509c5050505050505050505050505060405180910390f35b60008054600181600116156101000203166002900480601f01602080910402602001604051908101604052809291908181526020018280546001816001161561010002031660029004801561087d5780601f106108525761010080835404028352916020019161087d565b820191906000526020600020905b81548152906001019060200180831161086057829003601f168201915b505050505081565b6060600360008373ffffffffffffffffffffffffffffffffffffffff1673ffffffffffffffffffffffffffffffffffffffff16815260200190815260200160002080548060200260200160405190810160405280929190818152602001828054801561091057602002820191906000526020600020905b8154815260200190600101908083116108fc575b50505050509050919050565b60015481565b6003602052816000526040600020818154811061093b57fe5b90600052602060002001600091509150505481565b6004818051602081018201805184825260208301602085012081835280955050505050506000915054906101000a900460ff1681565b60008111801561099857506001548111155b610a0a576040517f08c379a000000000000000000000000000000000000000000000000000000000815260040180806020018281038252600f8152602001807f496e76616c69642066696c65204944000000000000000000000000000000000081525060200191505060405180910390fd5b60006002600083815260200190815260200160002060010180546001816001161561010002031660029004905011610aaa576040517f08c379a00000000000000000000000000000000000000000000000000000000081526004018080602001828103825260138152602001807f46696c6520646f6573206e6f742065786973740000000000000000000000000081525060200191505060405180910390fd5b610ab2611bfa565b600260008381526020019081526020016000206040518061010001604052908160008201548152602001600182018054600181600116156101000203166002900480601f016020809104026020016040519081016040528092919081815260200182805460018160011615610100020316600290048015610b745780601f10610b4957610100808354040283529160200191610b74565b820191906000526020600020905b815481529060010190602001808311610b5757829003601f168201915b5050505050815260200160028201548152602001600382018054600181600116156101000203166002900480601f016020809104026020016040519081016040528092919081815260200182805460018160011615610100020316600290048015610c205780601f10610bf557610100808354040283529160200191610c20565b820191906000526020600020905b815481529060010190602001808311610c0357829003601f168201915b50505050508152602001600482018054600181600116156101000203166002900480601f016020809104026020016040519081016040528092919081815260200182805460018160011615610100020316600290048015610cc25780601f10610c9757610100808354040283529160200191610cc2565b820191906000526020600020905b815481529060010190602001808311610ca557829003601f168201915b50505050508152602001600582018054600181600116156101000203166002900480601f016020809104026020016040519081016040528092919081815260200182805460018160011615610100020316600290048015610d645780601f10610d3957610100808354040283529160200191610d64565b820191906000526020600020905b815481529060010190602001808311610d4757829003601f168201915b50505050508152602001600682015481526020016007820160009054906101000a900473ffffffffffffffffffffffffffffffffffffffff1673ffffffffffffffffffffffffffffffffffffffff1673ffffffffffffffffffffffffffffffffffffffff168152505090503373ffffffffffffffffffffffffffffffffffffffff168160e0015173ffffffffffffffffffffffffffffffffffffffff1614610e74576040517f08c379a000000000000000000000000000000000000000000000000000000000815260040180806020018281038252600e8152602001807f4e6f742066696c65206f776e657200000000000000000000000000000000000081525060200191505060405180910390fd5b6060816020015190506000600360003373ffffffffffffffffffffffffffffffffffffffff1673ffffffffffffffffffffffffffffffffffffffff168152602001908152602001600020905060008090505b8180549050811015610f5a5784828281548110610edf57fe5b90600052602060002001541415610f4d5781600183805490500381548110610f0357fe5b9060005260206000200154828281548110610f1a57fe5b906000526020600020018190555081805480610f3257fe5b60019003818190600052602060002001600090559055610f5a565b8080600101915050610ec6565b5060026000858152602001908152602001600020600080820160009055600182016000610f879190611c55565b6002820160009055600382016000610f9f9190611c55565b600482016000610faf9190611c55565b600582016000610fbf9190611c55565b60068201600090556007820160006101000a81549073ffffffffffffffffffffffffffffffffffffffff0219169055505060006004836040518082805190602001908083835b602083106110285780518252602082019150602081019050602083039250611005565b6001836020036101000a038019825116818451168082178552505050505050905001915050908152602001604051809103902060006101000a81548160ff0219169083151502179055507f5aee9b7eab54210a7a72a11a64f1252b2e1331b721f1ab1d9ec9bbf78c1dc54184833360405180848152602001806020018373ffffffffffffffffffffffffffffffffffffffff1673ffffffffffffffffffffffffffffffffffffffff168152602001828103825284818151815260200191508051906020019080838360005b8381101561110e5780820151818401526020810190506110f3565b50505050905090810190601f16801561113b5780820380516001836020036101000a031916815260200191505b5094505050505060405180910390a150505050565b60008551116111c7576040517f08c379a00000000000000000000000000000000000000000000000000000000081526004018080602001828103825260128152602001807f46696c652068617368207265717569726564000000000000000000000000000081525060200191505060405180910390fd5b600083511161123e576040517f08c379a00000000000000000000000000000000000000000000000000000000081526004018080602001828103825260128152602001807f46696c652074797065207265717569726564000000000000000000000000000081525060200191505060405180910390fd5b60008251116112b5576040517f08c379a00000000000000000000000000000000000000000000000000000000081526004018080602001828103825260128152602001807f46696c65206e616d65207265717569726564000000000000000000000000000081525060200191505060405180910390fd5b600073ffffffffffffffffffffffffffffffffffffffff163373ffffffffffffffffffffffffffffffffffffffff161415611358576040517f08c379a000000000000000000000000000000000000000000000000000000000815260040180806020018281038252600e8152602001807f496e76616c69642073656e64657200000000000000000000000000000000000081525060200191505060405180910390fd5b600084116113ce576040517f08c379a00000000000000000000000000000000000000000000000000000000081526004018080602001828103825260208152602001807f46696c652073697a65206d7573742062652067726561746572207468616e203081525060200191505060405180910390fd5b6004856040518082805190602001908083835b6020831061140457805182526020820191506020810190506020830392506113e1565b6001836020036101000a038019825116818451168082178552505050505050905001915050908152602001604051809103902060009054906101000a900460ff16156114b8576040517f08c379a00000000000000000000000000000000000000000000000000000000081526004018080602001828103825260158152602001807f46696c6520616c72656164792075706c6f61646564000000000000000000000081525060200191505060405180910390fd5b60016000815480929190600101919050555060405180610100016040528060015481526020018681526020018581526020018481526020018381526020018281526020014281526020013373ffffffffffffffffffffffffffffffffffffffff16815250600260006001548152602001908152602001600020600082015181600001556020820151816001019080519060200190611557929190611c9d565b5060408201518160020155606082015181600301908051906020019061157e929190611c9d565b50608082015181600401908051906020019061159b929190611c9d565b5060a08201518160050190805190602001906115b8929190611c9d565b5060c0820151816006015560e08201518160070160006101000a81548173ffffffffffffffffffffffffffffffffffffffff021916908373ffffffffffffffffffffffffffffffffffffffff160217905550905050600360003373ffffffffffffffffffffffffffffffffffffffff1673ffffffffffffffffffffffffffffffffffffffff168152602001908152602001600020600154908060018154018082558091505090600182039060005260206000200160009091929091909150555060016004866040518082805190602001908083835b602083106116b0578051825260208201915060208101905060208303925061168d565b6001836020036101000a038019825116818451168082178552505050505050905001915050908152602001604051809103902060006101000a81548160ff0219169083151502179055507f6e95bbaa37a5fdec42a312e049dea2fe6160ebe659214d3409b4f91f164c2f526001548686868686423360405180898152602001806020018881526020018060200180602001806020018781526020018673ffffffffffffffffffffffffffffffffffffffff1673ffffffffffffffffffffffffffffffffffffffff16815260200185810385528c818151815260200191508051906020019080838360005b838110156117b557808201518184015260208101905061179a565b50505050905090810190601f1680156117e25780820380516001836020036101000a031916815260200191505b5085810384528a818151815260200191508051906020019080838360005b8381101561181b578082015181840152602081019050611800565b50505050905090810190601f1680156118485780820380516001836020036101000a031916815260200191505b50858103835289818151815260200191508051906020019080838360005b83811015611881578082015181840152602081019050611866565b50505050905090810190601f1680156118ae5780820380516001836020036101000a031916815260200191505b50858103825288818151815260200191508051906020019080838360005b838110156118e75780820151818401526020810190506118cc565b50505050905090810190601f1680156119145780820380516001836020036101000a031916815260200191505b509c5050505050505050505050505060405180910390a15050505050565b6002602052806000526040600020600091509050806000015490806001018054600181600116156101000203166002900480601f0160208091040260200160405190810160405280929190818152602001828054600181600116156101000203166002900480156119e45780601f106119b9576101008083540402835291602001916119e4565b820191906000526020600020905b8154815290600101906020018083116119c757829003601f168201915b505050505090806002015490806003018054600181600116156101000203166002900480601f016020809104026020016040519081016040528092919081815260200182805460018160011615610100020316600290048015611a885780601f10611a5d57610100808354040283529160200191611a88565b820191906000526020600020905b815481529060010190602001808311611a6b57829003601f168201915b505050505090806004018054600181600116156101000203166002900480601f016020809104026020016040519081016040528092919081815260200182805460018160011615610100020316600290048015611b265780601f10611afb57610100808354040283529160200191611b26565b820191906000526020600020905b815481529060010190602001808311611b0957829003601f168201915b505050505090806005018054600181600116156101000203166002900480601f016020809104026020016040519081016040528092919081815260200182805460018160011615610100020316600290048015611bc45780601f10611b9957610100808354040283529160200191611bc4565b820191906000526020600020905b815481529060010190602001808311611ba757829003601f168201915b5050505050908060060154908060070160009054906101000a900473ffffffffffffffffffffffffffffffffffffffff16905088565b60405180610100016040528060008152602001606081526020016000815260200160608152602001606081526020016060815260200160008152602001600073ffffffffffffffffffffffffffffffffffffffff1681525090565b50805460018160011615610100020316600290046000825580601f10611c7b5750611c9a565b601f016020900490600052602060002090810190611c999190611d1d565b5b50565b828054600181600116156101000203166002900490600052602060002090601f016020900481019282601f10611cde57805160ff1916838001178555611d0c565b82800160010185558215611d0c579182015b82811115611d0b578251825591602001919060010190611cf0565b5b509050611d199190611d1d565b5090565b611d3f91905b80821115611d3b576000816000905550600101611d23565b5090565b9056fea265627a7a72315820535101f8bc1733a22fff42ad6abc7162ba684350241b7bd75621aa9f4d40bb3f64736f6c63430005100032",
  "source": "pragma solidity ^0.5.0;\r\n\r\ncontract DStorage {\r\n\r\n    string public name = \"DStorage\";\r\n\r\n    // Total number of files\r\n    uint public fileCount = 0;\r\n\r\n    // File structure\r\n    struct File {\r\n        uint fileId;\r\n        string fileHash;\r\n        uint fileSize;\r\n        string fileType;\r\n        string fileName;\r\n        string fileDescription;\r\n        uint uploadTime;\r\n        address payable uploader;\r\n    }\r\n\r\n    // Mapping fileId => File\r\n    mapping(uint => File) public files;\r\n\r\n    // Mapping user => fileIds\r\n    mapping(address => uint[]) public userFiles;\r\n\r\n    // Prevent duplicate file uploads\r\n    mapping(string => bool) public fileExists;\r\n\r\n    // Event\r\n    event FileUploaded(\r\n        uint fileId,\r\n        string fileHash,\r\n        uint fileSize,\r\n        string fileType,\r\n        string fileName,\r\n        string fileDescription,\r\n        uint uploadTime,\r\n        address payable uploader\r\n    );\r\n\r\n    constructor() public {}\r\n\r\n    function uploadFile(\r\n        string memory _fileHash,\r\n        uint _fileSize,\r\n        string memory _fileType,\r\n        string memory _fileName,\r\n        string memory _fileDescription\r\n    ) public {\r\n\r\n        require(bytes(_fileHash).length > 0, \"File hash required\");\r\n        require(bytes(_fileType).length > 0, \"File type required\");\r\n        require(bytes(_fileName).length > 0, \"File name required\");\r\n        require(msg.sender != address(0), \"Invalid sender\");\r\n        require(_fileSize > 0, \"File size must be greater than 0\");\r\n\r\n        // Prevent duplicate file hashes\r\n        require(!fileExists[_fileHash], \"File already uploaded\");\r\n\r\n        fileCount++;\r\n\r\n        files[fileCount] = File(\r\n            fileCount,\r\n            _fileHash,\r\n            _fileSize,\r\n            _fileType,\r\n            _fileName,\r\n            _fileDescription,\r\n            now,\r\n            msg.sender\r\n        );\r\n\r\n        // Save file ID for the user\r\n        userFiles[msg.sender].push(fileCount);\r\n\r\n        // Mark file hash as used\r\n        fileExists[_fileHash] = true;\r\n\r\n        emit FileUploaded(\r\n            fileCount,\r\n            _fileHash,\r\n            _fileSize,\r\n            _fileType,\r\n            _fileName,\r\n            _fileDescription,\r\n            now,\r\n            msg.sender\r\n        );\r\n    }\r\n\r\n    // Get all file IDs uploaded by a user\r\n    function getUserFiles(address user) public view returns (uint[] memory) {\r\n        return userFiles[user];\r\n    }\r\n\r\n    event FileDeleted(uint fileId, string fileHash, address deletedBy);\r\n\r\n    function deleteFile(uint _fileId) public {\r\n        require(_fileId > 0 && _fileId <= fileCount, \"Invalid file ID\");\r\n        require(bytes(files[_fileId].fileHash).length > 0, \"File does not exist\");\r\n\r\n        File memory file = files[_fileId];\r\n\r\n        require(file.uploader == msg.sender, \"Not file owner\");\r\n\r\n        string memory hash = file.fileHash;\r\n\r\n        // Remove from userFiles array\r\n        uint[] storage userFileList = userFiles[msg.sender];\r\n        for (uint i = 0; i < userFileList.length; i++) {\r\n            if (userFileList[i] == _fileId) {\r\n                userFileList[i] = userFileList[userFileList.length - 1];\r\n                userFileList.pop();\r\n                break;\r\n            }\r\n        }\r\n\r\n        // Delete mappings\r\n        delete files[_fileId];\r\n        fileExists[hash] = false;\r\n\r\n        emit FileDeleted(_fileId, hash, msg.sender);\r\n    }\r\n}",
  "sourcePath": "C:/Users/Karan/OneDrive/Desktop/Node.js/DApp/dstorage/src/contracts/DStorage.sol",
  "compiler": {
    "name": "solc",
    "version": "0.5.16+commit.9c3226ce.Emscripten.clang"
  },
  "schemaVersion": "3.2.3",
  "updatedAt": "2026-04-07T16:34:52.776Z",
  "networkType": "ethereum",
  "devdoc": {
    "methods": {}
  },
  "userdoc": {
    "methods": {}
  }
}